:100000000C9472000C947E000C947E000C947E0084
:100010000C947E000C947E000C947E000C947E0068
:100020000C947E000C947E000C947E000C947E0058
:100030000C947E000C947E000C947E000C947E0048
:100040000C947E000C947E000C947E000C947E0038
:100050000C947E000C947E000C947E000C947E0028
:100060000C947E000C947E000C947E000C947E0018
:100070000C947E000C947E000C947E000C947E0008
:100080000C947E000C947E000C947E000C947E00F8
:100090000C947E000C947E000C947E000C947E00E8
:1000A0000C947E000C947E000C947E000C947E00D8
:1000B0000C947E000C947E000C947E000C947E00C8
:1000C0000C947E000C947E000C947E000C947E00B8
:1000D0000C947E000C947E000C947E000C947E00A8
:1000E0000C947E0011241FBECFEFD1E2DEBFCDBF46
:1000F00000E00CBF0E94BC000C94F0000C940000C7
:100100001092C50087E68093C40086E08093C20009
:1001100088E98093C10008959091C00095FFFCCFBD
:100120008093C60008958091C00087FFFCCF809126
:10013000C6000895FC019091C00097FFFCCF9091FC
:10014000C6009193992329F09A3011F09D3099F7C8
:1001500011929E2F981B892F0895FC012081222344
:1001600051F031969091C00095FFFCCF2093C600CE
:1001700021912111F7CF0895CF93DF93CDB7DEB74B
:10018000DA950FB6F894DEBF0FBECDBF1092C50052
:1001900087E68093C40086E08093C20088E980935C
:1001A000C100FE0131968091C00087FFFCCF809195
:1001B000C6008193882329F08A3011F08D3099F799
:1001C00010829981992369F3FE0132968091C000D3
:1001D00085FFFCCF9093C60091919111F7CFE1CFAD
:0401E000F894FFCFC1
:00000001FF
